S01D00002E2F44656275672F67726170686963646973706C61792E73313990
S315200000000248854600F00CFBFEE7C04600C00120F2
S3152000001080B582B000AF402000F036F9144B154A67
S315200000201A60012000F030F9022000F00BF900F0F0
S31520000030C3F9402000F006F900F0BEF90E4B1B78FC
S31520000040DAB2FB1D7F218A431A70402000F01CF98A
S3152000005000F0B2F9FB1D1B78002B00D0E9E7C04663
S31520000060034B064A1A60C046BD4602B080BDC04654
S3152000007000100240555500001110024055555555A7
S3152000008080B584B000AF0200FB1D1A70402000F03E
S31520000090FBF81C4B1C4A1A60032000F0D3F8FB1D0A
S315200000A01B78180000F014F900F086F9402000F0C3
S315200000B0C9F800F081F9154A0F23FB1812781A7037
S315200000C0402000F0E1F80F4B114A1A60FB1D1B7807
S315200000D00822134004D0082000F0FAF8FFF798FF12
S315200000E0FB1D1B781022134004D0102000F0F0F8DE
S315200000F0FFF78EFF0F23FB181B781800BD4604B0B0
S3152000010080BDC04600100240555500001110024027
S315200001105555555580B582B000AF0200FB1D1A70AB
S31520000120BB1D0A1C1A701A4AFB1D1B781370BB1DB7
S315200001301B78180000F0CCF800F03EF9402000F0C3
S3152000014081F800F039F9402000F09EF8BB1D1B789D
S315200001500822134004D0082000F0BAF8FFF758FF11
S31520000160BB1D1B781022134004D0102000F0B0F8DD
S31520000170FFF74EFF064B00221A70402000F062F86F
S31520000180002000F0A5F8C046BD4602B080BDC0469E
S315200001901510024080B582B000AF0200FB1D1A7018
S315200001A0BB1D0A1C1A70402000F06EF8BB1D1B7880
S315200001B0180000F08DF8032000F066F8BB1D1A78B1
S315200001C0FB1D1B7811001800FFF7A4FFC046BD4693
S315200001D002B080BD80B582B000AF0200FB1D1A7050
S315200001E0BB1D0A1C1A70402000F04EF8BB1D1B7860
S315200001F0180000F06DF8022000F046F8012000F00B
S3152000020021F8BB1D1A78FB1D1B7811001800FFF77B
S3152000021081FFC046BD4602B080BD80B582B000AF2A
S315200002200200FB1D1A70FB1D1B781800FFF728FF24
S31520000230FB1D1B781800FFF723FF03001800BD469F
S3152000024002B080BD80B584B000AF0200FB1D1A70DD
S315200002500C4A0F217B1812781A70FB1D1B785BB293
S31520000260042293435AB27B181B785BB213435AB2CB
S315200002707B181A70034A7B181B781370C046BD463C
S3152000028004B080BD1410024080B584B000AF0200D7
S31520000290FB1D1A700D4A0F217B1812781A70FB1D50
S315200002A01B78DB43DBB27A1812781340DAB20800E7
S315200002B07B1804218A431A70044A01007B181B7894
S315200002C01370C046BD4604B080BDC046141002401F
S315200002D080B582B000AF0200FB1D1A70FB1D1B7893
S315200002E0082B0CD002DC002B05D01AE0102B0DD0E9
S315200002F0182B12D015E01820FFF7C6FF11E00820B2
S31520000300FFF7A0FF1020FFF7BFFF0AE01020FFF73E
S3152000031099FF0820FFF7B8FF03E01820FFF792FFA8
S31520000320C046C046BD4602B080BD80B582B000AF93
S31520000330786002E07B68013B7B607B68002BF9DC00
S31520000340C046BD4602B080BD80B582B000AF7860A1
S3152000035002E07B68013B7B607B68002BF9DCC046B2
S31520000360BD4602B080BD80B582B000AF0F4B0022E3
S315200003701A600F4B29221A600E4B00221A600B4B73
S3152000038005221A60094B1A6880235B0213407B60A2
S31520000390C046064B1A6880235B021340F9D0034BF4
S315200003A000221A60C046BD4602B080BD10E000E0C3
S315200003B014E000E018E000E080B500AFC046BD467E
S315200003C080BD80B500AF4020FFF73CFF0A20FFF735
S315200003D0BBFF7820FFF758FF1E20FFF7A6FF20203F
S315200003E0FFF730FF6420FFF7A0FF18213E20FFF71C
S315200003F0D1FE18213F20FFF7CDFE1821C020FFF7A0
S31520000400C9FE18214020FFF7C5FE1821B820FFF7A6
S31520000410C1FE0020FFF75CFFC046BD4680BD80B50B
S3152000042082B000AF00237B601DE07B68DBB24822F0
S3152000043052421343DBB218211800FFF7ABFE1821F6
S315200004404020FFF7A7FE00233B6006E0182100208E
S31520000450FFF7C0FE3B6801333B603B683F2BF5D975
S315200004607B6801337B607B68072BDED9C046BD469F
S3152000047002B080BDB0B588B000AFF860B9607A60D0
S31520000480FB68002B00DCB6E0BB68002B00DCB2E08A
S31520000490FB68802B00DDAEE0BB68402B00DDAAE0C8
S315200004A0BB68013B002B00DA0733DB10BB61BB685E
S315200004B0013B534A134004D5013B082252421343C1
S315200004C00133072B2CD89A004E4BD3181B689F4616
S315200004D01F23FB1801221A7022E01F23FB18022279
S315200004E01A701DE01F23FB1804221A7018E01F2320
S315200004F0FB1808221A7013E01F23FB1810221A700B
S315200005000EE01F23FB1820221A7009E01F23FB1878
S3152000051040221A7004E01F23FB1880221A70C0465E
S315200005207B68002B05D11F22BB18BA181278D2433C
S315200005301A70FB68402B07DD1E23FB1810221A7049
S31520000540FB68413BFB6006E01E23FB1808221A705D
S31520000550FB68013BFB60FB685BB2402213435BB246
S31520000560DAB21E257B191B7819001000FFF712FE40
S31520000570BB695BB24822524213435BB2DAB27B19A3
S315200005801B7819001000FFF705FE1723FC187B19AE
S315200005901B781800FFF741FE03002370FB685BB24F
S315200005A0402213435BB2DAB27B191B781900100084
S315200005B0FFF7F0FD7B68002B09D01F22BB18B91866
S315200005C01722BA18097812780A431A7008E01F22EF
S315200005D0BB18BA1817217918127809780A401A70A8
S315200005E01E23FB181A781F23FB181B7811001800EE
S315200005F0FFF7F0FD00E0C046BD4608B0B0BDC046DE
S3152000060007000080E406002080B500AF024B034AB5
S315200006101A60C046BD4680BD00100240555555554E
S3152000062080B582B000AFFFF7EFFFFFF7CAFEFB1DD4
S3152000063000221A700BE0FB1D1B7801220A211800EC
S31520000640FFF718FFFB1D1A78FB1D01321A70FB1DE0
S315200006501B785BB2002BEEDAFB1D00221A700BE032
S31520000660FB1D1B78012219000A20FFF703FFFB1D43
S315200006701A78FB1D01321A70FB1D1B783F2BEFD910
S31520000680FA235B001800FFF750FEFB1D00221A70AC
S315200006900BE0FB1D1B7800220A211800FFF7EAFE5B
S315200006A0FB1D1A78FB1D01321A70FB1D1B785BB2ED
S315200006B0002BEEDAFB1D00221A700BE0FB1D1B78C7
S315200006C0002219000A20FFF7D5FEFB1D1A78FB1D14
S315200006D001321A70FB1D1B783F2BEFD9C046BD4651
S315200006E002B080BDD0040020DA040020E4040020FB
S315200006F0EE040020F8040020020500200C0500204E
S309200007001605002094
S70520000000DA
