S01F00002E2F44656275672F666C6970666C69705F6972715F61636B2E733139D3
S315200000000248854600F0B0F8FEE7C04600C0012051
S3152000001080B500AF264B1B680822134045D0244BE1
S315200000201A68234B08210A431A60224B1B78DBB23D
S315200000301A00012313400AD01F4B1B685A1C1E4B63
S315200000401A601B4B1A681A4B01210A431A60194B76
S315200000501B78DBB21A000223134008D0164B00226D
S315200000601A60134B1A68124B02210A431A60114B6D
S315200000701B78DBB21A000423134016D00C4B1A68E7
S315200000800B4B04210A431A600C4B1B68002B06D02D
S315200000900B4B00221A70094B00221A6005E0084B10
S315200000A0FF221A70054B01221A60C046BD4680BD4C
S315200000B0143C0140101002408801002084010020D9
S315200000C0150C024080B500AF1A4B1B4A1A601B4B19
S315200000D000221A601A4B1A68194B1A490A401A60EC
S315200000E0174B1A68164B8021C9010A431A60164B12
S315200000F01A68154B08210A431A60144B1A68134BC9
S3152000010008210A431A60124B1A68114B08218A43A8
S315200001101A60104B104A1A60104B114A1A60114B84
S315200001201A68104B802189000A431A60C046BD46D2
S3152000013080BDC046000C0240555555550010024062
S3152000014008380140FF0FFFFF003C0140083C0140FA
S315200001500C3C014008ED00E000C0012064C00120F5
S315200001601100002000E100E080B500AFFFF7AAFFF4
S31520000170024B1A68024BD2B21A70F9E788010020A6
S31120000180140C02400000000000000000EB
S70520000000DA
