S01C00002E2F44656275672F75736172745F706F6C6C696E672E733139E2
S315200000000248854600F07CF9FEE7C04600C0012084
S3152000001084B0B0B500AF0C253C1D6419206061602A
S31520000020A260E36029003B1D5B1800229A703B1DED
S315200000305B1800221A703B1D5B1800225A70C046BE
S31520000040BD46B0BC08BC04B0184784B0B0B5C6469F
S3152000005000B500AF0C2508243C19641920606160A6
S31520000060A260E3600823FB185B199B78402B01D123
S31520000070002334E00C210823FB185B181B78082288
S31520000080BA185218D31844220C208446082038184F
S315200000908046C44462441278DA700823FB185B1841
S315200000A01B780133DAB20823FB185B181A70082371
S315200000B0FB185B189B780133DAB20823FB185B1810
S315200000C09A700823FB185B181B78402B06D10C234B
S315200000D00822BA189446634400221A700123180095
S315200000E0BD4604BC9046B0BC08BC04B0184784B0DA
S315200000F0B0B500AF0C253C1D641920606160A2607C
S31520000100E3603B1D5B199B78002B01D100231DE08A
S315200001100C213B1D5B185B783A1D5218D318DA78F0
S315200001207B6D1A703B1D5B189B78013BDAB23B1D39
S315200001305B189A703B1D5B185B78402B05D10C230E
S315200001403A1D9446634400225A7001231800BD4686
S31520000150B0BC08BC04B0184790B591B00EAF0B4C9C
S315200001607B680D936B461800230010333322190049
S3152000017000F0E0F820686168A268E368FFF7B7FF3F
S31520000180FB1C1B781800BD4603B090BD8C030020D5
S3152000019090B591B00EAF0200FB1D1A700E4CFB1DE0
S315200001A01B780D936B461800230010333322190059
S315200001B000F0C0F820686168A268E368FFF745FF91
S315200001C0064B9B899BB2054A80210B439BB29381A8
S315200001D0C046BD4603B090BD8C03002000100140F0
S315200001E090B58FB00EAF244B1B889BB21A002023EC
S315200001F0134013D0204B9B889BB2DBB21F4C0D9330
S315200002006B461800230010333322190000F092F8B1
S3152000021020686168A268E368FFF717FF164B9B8981
S315200002209BB21A008023134021D0134B1B889BB20C
S315200002301A00802313401AD00F4B9B889BB20F4C79
S315200002400D936B461800230010333322190000F05B
S3152000025071F820686168A268E368FFF748FF064BDB
S315200002609B899BB2044A80218B439BB29381C046D3
S31520000270BD4601B090BDC046001001408C03002051
S3152000028080B500AF0D4B00221A700D4B0D4A1A6037
S315200002900D4B1A680C4B20210A431A600B4B0C4A53
S315200002A01A810A4B00229A82084B00221A82074B97
S315200002B0084A9A81C046BD4680BDC046D00300206C
S315200002C0D4C00120E101002004E100E0001001403B
S315200002D0D90200002C20000080B582B000AF7860E3
S315200002E006E07B685A1C7A601B781800FFF750FFDF
S315200002F07B681B78002BF4D1C046BD4602B080BD7A
S3152000030090B583B000AFFFF7BBFF094B1800FFF78E
S31520000310E3FFFC1DFFF720FF03002370FB1D1B7866
S31520000320002BF6D0FB1D1B781800FFF731FFF0E7F6
S31520000330D8030020002310B59A4200D110BDCC5C12
S31520000340C4540133F8E7000000000000000000005C
S315200003500000000000000000000000000000000077
S315200003600000000000000000000000000000000067
S315200003700000000000000000000000000000000057
S315200003800000000000000000000000000000000047
S315200003900000000000000000000000000000000037
S315200003A00000000000000000000000000000000027
S315200003B00000000000000000000000000000000017
S315200003C00000000000000000000000000000000007
S315200003D00000000000000000555341525420707266
S30D200003E06F6772616D000000D9
S70520000000DA
