S01C00002E2F44656275672F61736369695F646973706C61792E73313907
S315200000000248854600F0CCF9FEE7C04600C0012034
S3152000001080B584B000AF0200FB1D1A700C4A0F2178
S315200000207B1812781A70FA1D7B1812781B781343E6
S31520000030DAB208007B1804210A431A70044A010028
S315200000407B181B781370C046BD4604B080BDC046E1
S315200000501410024080B584B000AF0200FB1D1A7058
S315200000600D4A0F217B1812781A70FB1D1B785BB284
S31520000070DB435BB2042213435BB27A18127852B286
S3152000008013405AB27B181A70034A7B181B781370D8
S31520000090C046BD4604B080BD1410024080B582B073
S315200000A000AF0200FB1D1A704020FFF7B1FF064A81
S315200000B0FB1D1B78137000F0B7F84020FFF7CAFF2E
S315200000C0C046BD4602B080BD1510024080B582B044
S315200000D000AF4020FFF79CFF00F0A6F800F0A4F840
S315200000E0064AFB1D12781A704020FFF7B3FFFB1D4E
S315200000F01B781800BD4602B080BDC04611100240D4
S3152000010080B582B000AF0200FB1D1A700120FFF7F8
S31520000110A1FF0220FFF79EFFFB1D1B781800FFF7AB
S31520000120BDFFC046BD4602B080BD80B582B000AFDF
S315200001300200FB1D1A700120FFF76AFF0220FFF75D
S3152000014089FFFB1D1B781800FFF7A8FFC046BD4698
S3152000015002B080BD90B583B000AF0E4B1A680D4B30
S315200001600D490A401A600220FFF752FF0120FFF7CF
S3152000017071FFFC1DFFF7AAFF03002370054B1A68C9
S31520000180044B06490A431A60FB1D1B781800BD461E
S3152000019003B090BD001002405555000055555555E9
S315200001A090B583B000AF0E4B1A680D4B0D490A402F
S315200001B01A600120FFF72CFF0220FFF729FFFC1D04
S315200001C0FFF784FF03002370054B1A68044B06498A
S315200001D00A431A60FB1D1B781800BD4603B090BD6C
S315200001E000100240555500005555555580B582B032
S315200001F000AF786002E07B68013B7B607B68002B68
S31520000200F9DCC046BD4602B080BD80B582B000AFE5
S31520000210786002E07B68013B7B607B68002BF9DC21
S31520000220C046BD4602B080BD80B582B000AF104B3F
S3152000023000221A600F4B29221A600F4B00221A60E7
S315200002400B4B05221A600A4B1A6880235B02134067
S315200002507B60C046064B1A6880235B021340F9D0A8
S31520000260034B00221A60C046BD4602B080BDC04680
S3152000027010E000E014E000E018E000E080B582B075
S3152000028000AF0200FB1D1A70C046FFF763FF030094
S315200002901A0080231340802BF7D00820FFF7B5FFE4
S315200002A0FB1D1B781800FFF740FF2D20FFF7ADFF41
S315200002B0C046BD4602B080BD80B584B000AF786030
S315200002C039607B68013BFB603B68022B02D1FB68EF
S315200002D04033FB60FB68DBB2802252421343DBB221
S315200002E01800FFF70DFFC046BD4604B080BD80B59F
S315200002F000AFC046FFF72EFF03001A0080231340ED
S31520000300802BF7D00820FFF780FF3820FFF7F8FE74
S315200003102820FFF77AFFC046FFF71CFF03001A00CC
S3152000032080231340802BF7D00820FFF76EFF0D2087
S31520000330FFF7E6FE2820FFF768FFC046FFF70AFF13
S3152000034003001A0080231340802BF7D00820FFF7E4
S315200003505CFF0120FFF7D4FE0220FFF747FFC046CF
S31520000360FFF7F8FE03001A0080231340802BF7D0F6
S315200003700820FFF74AFF0620FFF7C2FE2720FFF7D7
S3152000038044FFC046BD4680BD80B500AF024B034A40
S315200003901A60C046BD4680BD0010024055555555D1
S315200003A0B0B58CB000AF7860396018243B191E4A6E
S315200003B023CA23C303CA03C30823FB181B4A23CA21
S315200003C023C31188198092789A70FFF7DDFFFFF713
S315200003D08EFF01210120FFF76FFF3B19FB6206E02C
S315200003E0FB6A5A1CFA621B781800FFF747FFFB6A64
S315200003F01B78002BF4D102210120FFF75DFF082393
S31520000400FB18FB6206E0FB6A5A1CFA621B7818008E
S31520000410FFF734FFFB6A1B78002BF4D1002318006A
S31520000420BD460CB0B0BDC0463004002044040020B8
S31520000430496620796F752063616E20647265616DEF
S3152000044020697400596F752063616E20646F20697E
S3092000045074210000ED
S70520000000DA
