S01C00002E2F44656275672F61736369695F646973706C61792E73313907
S315200000000248854600F0D2F9FEE7C04600C001202E
S3152000001080B500AF024B034A1A60C046BD4680BD7C
S31520000020001002405555555580B584B000AF0200EA
S31520000030FB1D1A700C4A0F217B1812781A70FA1DB4
S315200000407B1812781B781343DAB208007B18042138
S315200000500A431A70044A01007B181B781370C046A5
S31520000060BD4604B080BDC0461010024080B584B0A5
S3152000007000AF0200FB1D1A700D4A0F217B18127863
S315200000801A70FB1D1B785BB2DB435BB20422134361
S315200000905BB27A18127852B213405AB27B181A7091
S315200000A0034A7B181B781370C046BD4604B080BD3A
S315200000B01010024080B582B000AF0200FB1D1A70FE
S315200000C04020FFF7B1FF064AFB1D1B78137000F096
S315200000D0BEF84020FFF7CAFFC046BD4602B080BD2D
S315200000E01110024080B582B000AF4020FFF79CFF80
S315200000F000F0ADF800F0ABF8064AFB1D12781A7036
S315200001004020FFF7B3FFFB1D1B781800BD4602B049
S3152000011080BDC0461110024080B582B000AF0200FB
S31520000120FB1D1A700120FFF7A1FF0220FFF79EFF9B
S31520000130FB1D1B781800FFF7BDFFC046BD4602B069
S3152000014080BD80B582B000AF0200FB1D1A70012071
S31520000150FFF76AFF0220FFF789FFFB1D1B781800B7
S31520000160FFF7A8FFC046BD4602B080BD90B583B05C
S3152000017000AF0E4B1A680D4B0D490A401A6001203C
S31520000180FFF774FF0220FFF74FFFFC1DFFF7AAFFC2
S3152000019003002370054B1A68044B50210A431A604A
S315200001A0FB1D1B781800BD4603B090BD0010024011
S315200001B00111000090B583B000AF0E4B1A680D4BAD
S315200001C00D490A401A600120FFF72EFF0220FFF793
S315200001D02BFFFC1DFFF786FF03002370054B1A68D3
S315200001E0044B50210A431A60FB1D1B781800BD469C
S315200001F003B090BD001002400111000080B582B00E
S3152000020000AF78600A2000F004F8C046BD4602B070
S3152000021080BD80B582B000AF78607B680A21180067
S3152000022000F00CF903007B600AE000F010F800F003
S315200002300EF800F00CF800F00AF87B68013B7B60B2
S315200002407B68002BF1DCC046BD4602B080BD80B580
S3152000025082B000AF0F4B00221A600F4B29221A6082
S315200002600E4B00221A600B4B05221A60094B1A68A6
S3152000027080235B0213407B60C046064B1A688023AE
S315200002805B021340F9D0034B00221A60C046BD46DC
S3152000029002B080BD10E000E014E000E018E000E0CD
S315200002A080B582B000AF0200FB1D1A70C046FFF772
S315200002B05DFF03001A0080231340802BF7D008200F
S315200002C0FFF7A7FFFB1D1B781800FFF73AFF2D202D
S315200002D0FFF79FFFC046BD4602B080BD80B584B003
S315200002E000AF786039607B68013BFB603B68022B7E
S315200002F002D1FB684033FB60FB68DBB280225242AE
S315200003001343DBB21800FFF707FFC046BD4604B013
S3152000031080BD80B500AFC046FFF728FF03001A0056
S3152000032080231340802BF7D00820FFF772FF002090
S31520000330FFF7F2FE2820FFF76CFFC046FFF716FFF7
S3152000034003001A0080231340802BF7D00820FFF7E4
S3152000035060FF4820FFF7E0FE2820FFF75AFFC0463F
S31520000360FFF704FF03001A0080231340802BF7D0E9
S315200003700820FFF74EFF0120FFF7CEFE0220FFF7F1
S315200003803DFFC046FFF7F2FE03001A00802313400C
S31520000390802BF7D00820FFF73CFF4020FFF7BCFE5C
S315200003A02720FFF736FFC046BD4680BDB0B58CB0CE
S315200003B000AF786039601C243B191E4A23CA23C328
S315200003C012881A800C23FB181B4A23CA23C31188C0
S315200003D0198092789A70FFF71BFEFFF79AFF01218A
S315200003E00120FFF77BFF3B19FB6206E0FB6A5A1CE4
S315200003F0FA621B781800FFF753FFFB6A1B78002B65
S31520000400F4D102210120FFF769FF0C23FB18FB62C0
S3152000041006E0FB6A5A1CFA621B781800FFF740FFB9
S31520000420FB6A1B78002BF4D100231800BD460CB0C4
S31520000430B0BDC046140600202406002003460B4308
S315200004407FD4002243088B4274D303098B425FD3A7
S31520000450030A8B4244D3030B8B4228D3030C8B42D3
S315200004600DD3FF22090212BA030C8B4202D31212B9
S31520000470090265D0030B8B4219D300E0090AC30B8E
S315200004808B4201D3CB03C01A5241830B8B4201D33B
S315200004908B03C01A5241430B8B4201D34B03C01A24
S315200004A05241030B8B4201D30B03C01A5241C30A9C
S315200004B08B4201D3CB02C01A5241830A8B4201D30D
S315200004C08B02C01A5241430A8B4201D34B02C01AF7
S315200004D05241030A8B4201D30B02C01A5241CDD29C
S315200004E0C3098B4201D3CB01C01A524183098B42E7
S315200004F001D38B01C01A524143098B4201D34B01D0
S31520000500C01A524103098B4201D30B01C01A524132
S31520000510C3088B4201D3CB00C01A524183088B42B9
S3152000052001D38B00C01A524143088B4201D34B00A2
S31520000530C01A5241411A00D2014652411046704714
S315200005405DE0CA0F00D04942031000D34042534019
S3152000055000229C4603098B422DD3030A8B4212D3D9
S31520000560FC22890112BA030A8B420CD3890192110B
S315200005708B4208D3890192118B4204D389013AD048
S31520000580921100E08909C3098B4201D3CB01C01A1D
S31520000590524183098B4201D38B01C01A5241430930
S315200005A08B4201D34B01C01A524103098B4201D31E
S315200005B00B01C01A5241C3088B4201D3CB00C01A8B
S315200005C0524183088B4201D38B00C01A5241D9D2A3
S315200005D043088B4201D34B00C01A5241411A00D224
S315200005E00146634652415B10104601D34042002B20
S315200005F000D54942704763465B1000D3404201B59F
S31520000600002000F005F802BD0029F8D016E7704753
S315200006107047C046416C66616E756D657269736B15
S3152000062020000000446973706C6179202D20746568
S3092000063073740000B9
S70520000000DA
