S01C00002E2F44656275672F61736369695F646973706C61792E73313907
S315200000000248854600F0DCF9FEE7C04600C0012024
S3152000001080B500AF044B054A1A60054B00221A80B2
S31520000020C046BD4680BDC0460010024055555555B8
S315200000300410024080B584B000AF0200FB1D1A7088
S315200000400C4A0F217B1812781A70FA1D7B18127829
S315200000501B781343DAB208007B1804210A431A706E
S31520000060044A01007B181B781370C046BD4604B0B5
S3152000007080BDC0461410024080B584B000AF020097
S31520000080FB1D1A700D4A0F217B1812781A70FB1D62
S315200000901B785BB2DB435BB2042213435BB27A1854
S315200000A0127852B213405AB27B181A70034A7B1840
S315200000B01B781370C046BD4604B080BD14100240A4
S315200000C080B582B000AF0200FB1D1A704020FFF7FA
S315200000D0B1FF064AFB1D1B78137000F0C2F84020C2
S315200000E0FFF7CAFFC046BD4602B080BD15100240CC
S315200000F080B582B000AF4020FFF79CFF00F0B1F83A
S3152000010000F0AFF8064AFB1D12781A704020FFF760
S31520000110B3FFFB1D1B781800BD4602B080BDC0464C
S315200001201110024080B582B000AF0200FB1D1A708C
S315200001300120FFF7A1FF0220FFF79EFFFB1D1B7882
S315200001401800FFF7BDFFC046BD4602B080BD80B592
S3152000015082B000AF0200FB1D1A700120FFF76AFF74
S315200001600220FFF789FFFB1D1B781800FFF7A8FF69
S31520000170C046BD4602B080BD90B583B000AF0E4BE1
S315200001801A680D4B0D490A401A600220FFF752FFEC
S315200001900120FFF771FFFC1DFFF7AAFF0300237064
S315200001A0054B1A68044B06490A431A60FB1D1B7847
S315200001B01800BD4603B090BD001002405555000002
S315200001C05555555590B583B000AF0E4B1A680D4B5B
S315200001D00D490A401A600120FFF72CFF0220FFF785
S315200001E029FFFC1DFFF784FF03002370054B1A68C7
S315200001F0044B06490A431A60FB1D1B781800BD46AE
S3152000020003B090BD00100240555500005555555578
S3152000021080B582B000AF7860012000F004F8C046B7
S31520000220BD4602B080BD80B582B000AF78607B68E5
S315200002300A21180000F00CF903007B600AE000F0A8
S3152000024010F800F00EF800F00CF800F00AF87B68C1
S31520000250013B7B607B68002BF1DCC046BD4602B0CB
S3152000026080BD80B582B000AF0F4B00221A600F4BC5
S3152000027029221A600E4B00221A600B4B05221A60A7
S31520000280094B1A6880235B0213407B60C046064BED
S315200002901A6880235B021340F9D0034B00221A60B0
S315200002A0C046BD4602B080BD10E000E014E000E08C
S315200002B018E000E080B582B000AF0200FB1D1A7086
S315200002C0C046FFF759FF03001A0080231340802BF6
S315200002D0F7D00820FFF7A7FFFB1D1B781800FFF7B4
S315200002E036FF2D20FFF79FFFC046BD4602B080BDDA
S315200002F080B584B000AF786039607B68013BFB60D5
S315200003003B68022B02D1FB684033FB60FB68DBB203
S31520000310802252421343DBB21800FFF703FFC04688
S31520000320BD4604B080BD80B500AFC046FFF724FFB0
S3152000033003001A0080231340802BF7D00820FFF7F4
S3152000034072FF3820FFF7EEFE2820FFF76CFFC0462D
S31520000350FFF712FF03001A0080231340802BF7D0EB
S315200003600820FFF760FF0D20FFF7DCFE2820FFF7AF
S315200003705AFFC046FFF700FF03001A0080231340F0
S31520000380802BF7D00820FFF74EFF0120FFF7CAFE8B
S315200003900220FFF73DFFC046FFF7EEFE03001A00DE
S315200003A080231340802BF7D00820FFF73CFF042042
S315200003B0FFF7B8FE2720FFF736FFC046BD4680BDB3
S315200003C0B0B58CB000AF7860396018243B191E4A4E
S315200003D023CA23C303CA03C30823FB181B4A23CA01
S315200003E023C31188198092789A70FFF711FEFFF7C0
S315200003F09AFF01210120FFF77BFF3B19FB6206E0F4
S31520000400FB6A5A1CFA621B781800FFF753FFFB6A37
S315200004101B78002BF4D102210120FFF769FF082366
S31520000420FB18FB6206E0FB6A5A1CFA621B7818006E
S31520000430FFF740FFFB6A1B78002BF4D1002318003E
S31520000440BD460CB0B0BDC046280600203C060020A4
S3152000045003460B437FD4002243088B4274D30309FF
S315200004608B425FD3030A8B4244D3030B8B4228D3A0
S31520000470030C8B420DD3FF22090212BA030C8B42C6
S3152000048002D31212090265D0030B8B4219D300E066
S31520000490090AC30B8B4201D3CB03C01A5241830BEB
S315200004A08B4201D38B03C01A5241430B8B4201D39B
S315200004B04B03C01A5241030B8B4201D30B03C01AC4
S315200004C05241C30A8B4201D3CB02C01A5241830A3E
S315200004D08B4201D38B02C01A5241430A8B4201D36D
S315200004E04B02C01A5241030A8B4201D30B02C01A97
S315200004F05241CDD2C3098B4201D3CB01C01A5241FE
S3152000050083098B4201D38B01C01A524143098B4286
S3152000051001D34B01C01A524103098B4201D30B016F
S31520000520C01A5241C3088B4201D3CB00C01A524194
S3152000053083088B4201D38B00C01A524143088B4259
S3152000054001D34B00C01A5241411A00D201465241F2
S31520000550104670475DE0CA0F00D04942031000D311
S315200005604042534000229C4603098B422DD3030A66
S315200005708B4212D3FC22890112BA030A8B420CD376
S31520000580890192118B4208D3890192118B4204D39F
S3152000059089013AD0921100E08909C3098B4201D31F
S315200005A0CB01C01A524183098B4201D38B01C01A59
S315200005B0524143098B4201D34B01C01A52410309D0
S315200005C08B4201D30B01C01A5241C3088B4201D37F
S315200005D0CB00C01A524183088B4201D38B00C01A2C
S315200005E05241D9D243088B4201D34B00C01A524103
S315200005F0411A00D20146634652415B10104601D390
S315200006004042002B00D54942704763465B1000D319
S31520000610404201B5002000F005F802BD0029F8D0BF
S3152000062016E770477047C046496620796F75206384
S31520000630616E20647265616D20697400596F752042
S3112000064063616E20646F20697421000045
S70520000000DA
