S01700002E2F44656275672F6175746F706F6E672E733139FD
S315200000000248854600F000FCFEE7C04600C00120FD
S3152000001080B500AF024B034A1A60C046BD4680BD7C
S31520000020001002405555555580B582B000AF40208E
S3152000003000F036F9144B154A1A60012000F030F909
S31520000040022000F00BF900F0CFF9402000F006F96D
S3152000005000F0CAF90E4B1B78DAB2FB1D7F218A43CA
S315200000601A70402000F01CF900F0BEF9FB1D1B7829
S31520000070002B00D0E9E7C046034B064A1A60C0466B
S31520000080BD4602B080BDC046001002405555000056
S31520000090111002405555555580B584B000AF020069
S315200000A0FB1D1A70402000F0FBF81C4B1C4A1A60FE
S315200000B0032000F0D3F8FB1D1B78180000F014F97C
S315200000C000F092F9402000F0C9F800F08DF9154AA9
S315200000D00F23FB1812781A70402000F0E1F80F4B1E
S315200000E0114A1A60FB1D1B780822134004D00820F1
S315200000F000F0FAF8FFF798FFFB1D1B78102213403B
S3152000010004D0102000F0F0F8FFF78EFF0F23FB1825
S315200001101B781800BD4604B080BDC04600100240C2
S3152000012055550000111002405555555580B582B0E1
S3152000013000AF0200FB1D1A70BB1D0A1C1A701A4A5A
S31520000140FB1D1B781370BB1D1B78180000F0CCF824
S3152000015000F04AF9402000F081F800F045F94020EF
S3152000016000F09EF8BB1D1B780822134004D00820FF
S3152000017000F0BAF8FFF758FFBB1D1B78102213407A
S3152000018004D0102000F0B0F8FFF74EFF064B0022F7
S315200001901A70402000F062F8002000F0A5F8C04652
S315200001A0BD4602B080BDC0461510024080B582B063
S315200001B000AF0200FB1D1A70BB1D0A1C1A704020DE
S315200001C000F06EF8BB1D1B78180000F08DF8032098
S315200001D000F066F8BB1D1A78FB1D1B78110018006D
S315200001E0FFF7A4FFC046BD4602B080BD80B582B0F1
S315200001F000AF0200FB1D1A70BB1D0A1C1A7040209E
S3152000020000F04EF8BB1D1B78180000F06DF8022098
S3152000021000F046F8012000F021F8BB1D1A78FB1DDE
S315200002201B7811001800FFF781FFC046BD4602B0BB
S3152000023080BD80B582B000AF0200FB1D1A70FB1D89
S315200002401B781800FFF728FFFB1D1B781800FFF707
S3152000025023FF03001800BD4602B080BD80B584B0E0
S3152000026000AF0200FB1D1A700C4A0F217B18127872
S315200002701A70FB1D1B785BB2042293435AB27B187B
S315200002801B785BB213435AB27B181A70034A7B1849
S315200002901B781370C046BD4604B080BD14100240C2
S315200002A080B584B000AF0200FB1D1A700D4A0F21E5
S315200002B07B1812781A70FB1D1B78DB43DBB27A1889
S315200002C012781340DAB208007B1804218A431A7088
S315200002D0044A01007B181B781370C046BD4604B043
S315200002E080BDC0461410024080B582B000AF020027
S315200002F0FB1D1A70FB1D1B78082B0CD002DC002B73
S3152000030005D01AE0102B0DD0182B12D015E018208E
S31520000310FFF7C6FF11E00820FFF7A0FF1020FFF728
S31520000320BFFF0AE01020FFF799FF0820FFF7B8FF6C
S3152000033003E01820FFF792FFC046C046BD4602B034
S3152000034080BD80B582B000AF786005E0012000F066
S315200003500AF87B68013B7B607B68002BF6DCC04695
S31520000360BD4602B080BD80B582B000AF78600AE09D
S3152000037000F010F800F00EF800F00CF800F00AF883
S315200003807B68013B7B607B68002BF1DCC046BD4669
S3152000039002B080BD80B582B000AF104B00221A603B
S315200003A00F4B29221A600F4B00221A600B4B052295
S315200003B01A600A4B1A6880235B0213407B60C04692
S315200003C0064B1A6880235B021340F9D0034B0022A8
S315200003D01A60C046BD4602B080BDC04610E000E0AF
S315200003E014E000E018E000E080B500AFFFF7D2FF90
S315200003F0FFF7D0FFC046BD4680BD80B500AF402088
S31520000400FFF72CFF0A20FFF7AEFF7820FFF748FF03
S315200004101E20FFF796FF2020FFF720FF6420FFF71E
S3152000042090FF18213E20FFF7C1FE18213F20FFF73D
S31520000430BDFE1821C020FFF7B9FE18214020FFF786
S31520000440B5FE1821B820FFF7B1FE0020FFF74CFFBC
S31520000450C046BD4680BD80B582B000AF00237B601C
S315200004601DE07B68DBB2482252421343DBB21821DF
S315200004701800FFF79BFE18214020FFF797FE002368
S315200004803B6006E018210020FFF7B0FE3B680133F1
S315200004903B603B683F2BF5D97B6801337B607B68EB
S315200004A0072BDED9C046BD4602B080BDB0B588B0A8
S315200004B000AFF860B9607A60FB68002B00DCB6E01C
S315200004C0BB68002B00DCB2E0FB68802B00DDAEE0D1
S315200004D0BB68402B00DDAAE0BB68013B002B00DA9D
S315200004E00733DB10BB61BB68013B534A134004D57D
S315200004F0013B0822524213430133072B2CD89A0082
S315200005004E4BD3181B689F461F23FB1801221A70D7
S3152000051022E01F23FB1802221A701DE01F23FB185E
S3152000052004221A7018E01F23FB1808221A7013E001
S315200005301F23FB1810221A700EE01F23FB182022FF
S315200005401A7009E01F23FB1840221A7004E01F23AB
S31520000550FB1880221A70C0467B68002B05D11F220B
S31520000560BB18BA181278D2431A70FB68402B07DDE5
S315200005701E23FB1810221A70FB68413BFB6006E025
S315200005801E23FB1808221A70FB68013BFB60FB68E0
S315200005905BB2402213435BB2DAB21E257B191B786D
S315200005A019001000FFF702FEBB695BB248225242D7
S315200005B013435BB2DAB27B191B7819001000FFF7E0
S315200005C0F5FD1723FC187B191B781800FFF731FE61
S315200005D003002370FB685BB2402213435BB2DAB29E
S315200005E07B191B7819001000FFF7E0FD7B68002BB4
S315200005F009D01F22BB18B9181722BA180978127801
S315200006000A431A7008E01F22BB18BA181721791856
S31520000610127809780A401A701E23FB181A781F23AD
S31520000620FB181B7811001800FFF7E0FD00E0C0461C
S31520000630BD4608B0B0BDC04607000080980800201F
S31520000640B0B584B000AF78607B681B681A680E234B
S31520000650FB181A700F23FB1800221A702DE07B68F6
S31520000660DB68D9B27B681A680F243B191B780433E0
S315200006705B00D31804331A780D203B188A181A7099
S315200006807B681B69D9B27B681A683B191B780433CF
S315200006905B00D31805331A780C257B198A181A7033
S315200006A03B1818787B191B7801221900FFF7FEFEEC
S315200006B03B191A783B1901321A700F23FA180E23A8
S315200006C0FB1812781B789A42C9D3C046BD4604B09F
S315200006D0B0BDB0B584B000AF78607B681B681A687F
S315200006E00E23FB181A700F23FB1800221A702DE018
S315200006F07B68DB68D9B27B681A680F243B191B78A4
S3152000070004335B00D31804331A780D203B188A185B
S315200007101A707B681B69D9B27B681A683B191B78EB
S3152000072004335B00D31805331A780C257B198A18F5
S315200007301A703B1818787B191B7800221900FFF7CE
S31520000740B5FE3B191A783B1901321A700F23FA1895
S315200007500E23FB1812781B789A42C9D3C046BD4691
S3152000076004B0B0BD80B584B000AFF860B9607A60DF
S31520000770FB68BA685A60FB687A689A60C046BD46CC
S3152000078004B080BD80B582B000AF78607B68180069
S31520000790FFF79FFF7B68DA687B685B68D2187B6807
S315200007A0DA607B681A697B689B68D2187B681A6155
S315200007B07B68DB68002B04DC7B685B685A427B68BD
S315200007C05A607B68DB68802B04DD7B685B685A4255
S315200007D07B685A607B681B69002B04DC7B689B68FE
S315200007E05A427B689A607B681B69402B04DD7B68D4
S315200007F09B685A427B689A607B681800FFF720FF47
S31520000800C046BD4602B080BD80B582B000AF0B4B5E
S315200008107B60FFF7FDFBFFF7F0FDFFF71CFE7B6813
S315200008201B6A78680122042198477B68DB697A680D
S31520000830100098470420FFF784FDF6E7740800208F
S315200008400C0000000400000004000000000100026B
S31520000850010001010102010302000201020202035A
S315200008600301030200000000000000000000000059
S3152000087000000000400800200000000000000000EA
S31520000880010000000100000041060020D3060020E0
S315200008908507002065070020080500201205002096
S315200008A01C05002026050020300500203A050020E2
S30D200008B0440500204E0500203E
S70520000000DA
