S01A00002E2F44656275672F7379737469636B5F6972712E733139B2
S315200000000248854600F068F8FEE7C04600C0012099
S3152000001080B500AF0A4B00221A600A4B1B685A1E95
S31520000020084B1A60074B1B68002B02DD00F00EF808
S3152000003002E0054B01221A60C046BD4680BDC0467F
S3152000004010E000E01C0100201801002080B500AF60
S31520000050084B00221A60084B00221A60074BA72281
S315200000601A60074B00221A60034B07221A60C0460B
S31520000070BD4680BD1801002010E000E014E000E03D
S3152000008018E000E080B582B000AF78607A68044B53
S315200000901A60FFF7DBFFC046BD4602B080BDC046F2
S315200000A01C01002080B500AF054B064A1A60064B9E
S315200000B0064A1A60064B074A1A60C046BD4680BDEE
S315200000C0000C02405555555508ED00E000C00120B2
S315200000D03CC001201100002080B500AFFFF7E2FFF1
S315200000E00B4B00221A706420FFF7CCFF084BFF222F
S315200000F01A70084B1B68002B03D1054BFE221A7081
S31520000100F7E7C046024BFC221A70C046BD4680BDAA
S31520000110140C02401801002000000000000000001E
S70520000000DA
