S01500002E2F44656275672F6B65797061642E733139EE
S315200000000248854600F0CEF8FEE7C04600C0012033
S3152000001080B500AF064B074A1A60074B8022520074
S315200000201A80064BAA2212041A60C046BD4680BD1D
S31520000030000C024055550055040C02400C0C0240A1
S3152000004090B587B000AF3B00164A13CA13C3126897
S315200000501A6001237B6119E07B69180000F024F8FF
S3152000006000F04CF803003B613B69002B0BD00020CD
S3152000007000F01AF87B69013B9A003B69013BD318D3
S315200000803A00D35C09E07B6901337B617B69042BF1
S31520000090E2DD002000F008F8FF231800BD4607B077
S315200000A090BDC046C401002080B582B000AF786004
S315200000B07B68042B19D87B689A000E4BD3181B68D3
S315200000C09F460D4B10221A700FE00B4B20221A7000
S315200000D00BE0094B40221A7007E0074B80221A706A
S315200000E003E0054B00221A70C046C046BD4602B04A
S315200000F080BDC046D4010020150C024080B582B0D8
S3152000010000AF124AFB1D12781A70FB1D1B780822BD
S31520000110134001D0042315E0FB1D1B780422134055
S3152000012001D003230EE0FB1D1B780222134001D0D1
S31520000130022307E0FB1D1B780122134001D0012377
S3152000014000E000231800BD4602B080BD110C02401D
S3152000015090B589B000AF0200FB1D1A700C23FB1866
S315200001600E4A13CA13C312681A60FB1D1B780F2B85
S315200001700CD8FB1D1A781F203B180C2179188A5C95
S315200001801A70074A3B181B78137002E0044B0022B2
S315200001901A70C046BD4609B090BDC046E801002091
S315200001A0140C024090B583B000AFFFF731FFFC1D61
S315200001B0FFF746FF03002370FB1D1B781800FFF78F
S315200001C0C7FFF4E70102030A0405060B0708090C1A
S315200001D00E000F0DE2000020C2000020CA00002001
S315200001E0D2000020DA0000203F065B4F666D7D07B7
S30D200001F07F6F777C395E79717F
S70520000000DA
