S02400002E2F44656275672F666C6970666C6F705F6972715F766563746F7265642E7331399B
S315200000000248854600F00CF9FEE7C04600C00120F4
S3152000001080B500AF184B1B78DBB21A0004231340BF
S3152000002016D0164B1B68002B06D0154B00221A70D3
S31520000030124B00221A6005E0114BFF221A700F4B5B
S3152000004001221A600F4B1A680E4B04210A431A60CC
S315200000500D4B1B78DBB20C4A40210B43DBB21370ED
S31520000060094B1B78DBB2084A40218B43DBB2137065
S31520000070C046BD4680BDC046101002403C0200204E
S31520000080150C0240143C01401410024080B500AF0C
S31520000090114B1B78DBB21A000223134008D00F4BFA
S315200000A000221A600E4B1A680D4B02210A431A6071
S315200000B00C4B1B78DBB20B4A20210B43DBB21370AF
S315200000C0084B1B78DBB2074A20218B43DBB2137027
S315200000D0C046BD4680BDC0461010024040020020EA
S315200000E0143C01401410024080B500AF124B1B781F
S315200000F0DBB21A00012313400AD0104B1B685A1C8E
S315200001000E4B1A600E4B1A680D4B01210A431A60DA
S315200001100C4B1B78DBB20B4A10210B43DBB213705E
S31520000120084B1B78DBB2074A10218B43DBB21370D6
S31520000130C046BD4680BDC046101002404002002089
S31520000140143C01401410024080B500AF234B244AD2
S315200001501A60244BA82252011A60234B1A68224B9C
S31520000160120B12031A60204B1A681F4B1F490A43B1
S315200001701A601F4B1A681E4B07210A431A601D4B33
S315200001801A681C4B07210A431A601B4B1A681A4B24
S3152000019007218A431A60194B194A1A60194B1A4AC1
S315200001A01A601A4B1A4A1A601A4B1B4A1A601B4BC2
S315200001B01A681A4B802149000A431A60174B1A689D
S315200001C0164B80210A431A60144B1A68134B4021A0
S315200001D00A431A60C046BD4680BDC046000C024098
S315200001E0555555550010024008380140440400007A
S315200001F0003C0140083C01400C3C014008ED00E079
S3152000020000C0012060C00120110000205CC0012038
S315200002108D00002058C00120E900002000E100E008
S3152000022080B500AFFFF790FF024B1A68024BD2B29F
S315200002301A70F9E740020020140C0240000000006A
S309200002400000000094
S70520000000DA
