S01400002E2F44656275672F736E616B652E7331395B
S315200000000248854600F082FEFEE7C04600C0012079
S3152000001080B584B000AF0200FB1D1A700C4A0F2178
S315200000207B18127D1A70FA1D7B1812781B781343E1
S31520000030DAB208007B1804210A431A70044A010028
S315200000407B181B781375C046BD4604B080BDC046DC
S315200000500010024080B584B000AF0200FB1D1A706C
S315200000600D4A0F217B18127D1A70FB1D1B785BB27F
S31520000070DB435BB2042213435BB27A18127852B286
S3152000008013405AB27B181A70034A7B181B781375D3
S31520000090C046BD4604B080BD0010024080B582B087
S315200000A000AF0200FB1D1A704020FFF7B1FF064A81
S315200000B0FB1D1B78537500F0C5F94020FFF7CAFFDA
S315200000C0C046BD4602B080BD0010024080B582B059
S315200000D000AF4020FFF79CFF00F0B4F900F0B2F922
S315200000E0064AFB1D527C1A704020FFF7B3FFFB1D0A
S315200000F01B781800BD4602B080BDC04600100240E5
S3152000010080B582B000AF0200FB1D1A700120FFF7F8
S31520000110A1FF0220FFF79EFFFB1D1B781800FFF7AB
S31520000120BDFFC046BD4602B080BD80B582B000AFDF
S315200001300200FB1D1A700120FFF76AFF0220FFF75D
S3152000014089FFFB1D1B781800FFF7A8FFC046BD4698
S3152000015002B080BD90B583B000AF0E4B1A680D4B30
S315200001600D490A401A600220FFF752FF0120FFF7CF
S3152000017071FFFC1DFFF7AAFF03002370054B1A68C9
S31520000180044B06490A431A60FB1D1B781800BD461E
S3152000019003B090BD001002405555000055555555E9
S315200001A090B583B000AF0E4B1A680D4B0D490A402F
S315200001B01A600120FFF72CFF0220FFF729FFFC1D04
S315200001C0FFF784FF03002370054B1A68044B06498A
S315200001D00A431A60FB1D1B781800BD4603B090BD6C
S315200001E000100240555500005555555580B582B032
S315200001F000AF0200FB1D1A70C046FFF7ABFF0300DD
S315200002001A0080231340802BF7D0082000F00BF92A
S31520000210FB1D1B781800FFF788FF2D2000F003F93F
S31520000220C046BD4602B080BD80B584B000AF7860C0
S3152000023039607B68013BFB603B68022B02D1FB687F
S315200002404033FB60FB68DBB2802252421343DBB2B1
S315200002501800FFF755FFC046BD4604B080BD80B5E7
S3152000026000AFC046FFF776FF03001A008023134035
S31520000270802BF7D0082000F0D6F83820FFF740FF73
S31520000280282000F0D0F8C046FFF764FF03001A00CC
S3152000029080231340802BF7D0082000F0C4F80D20CF
S315200002A0FFF72EFF282000F0BEF8C046FFF752FFCA
S315200002B003001A0080231340802BF7D0082000F07B
S315200002C0B2F80120FFF71CFF022000F09DF8C0467F
S315200002D0FFF740FF03001A0080231340802BF7D03E
S315200002E0082000F0A0F80620FFF70AFF272000F0DC
S315200002F09AF8C046BD4680BD90B587B000AF3B009A
S31520000300164A13CA13C312681A6001237B6119E0C7
S315200003107B69180000F024F800F04CF803003B61DC
S315200003203B69002B0BD0002000F01AF87B69013BBB
S315200003309A003B69013BD3183A00D35C09E07B69FC
S3152000034001337B617B69042BE2DD002000F008F895
S31520000350FF231800BD4607B090BDC046480E0020BA
S3152000036080B582B000AF78607B68042B19D87B6893
S315200003709A000E4BD3181B689F460D4B10225A75B8
S315200003800FE00B4B20225A750BE0094B40225A7581
S3152000039007E0074B80225A7503E0054B00225A7569
S315200003A0C046C046BD4602B080BDC046580E00209D
S315200003B0000C024080B582B000AF124AFB1D527C71
S315200003C01A70FB1D1B780822134001D0042315E068
S315200003D0FB1D1B780422134001D003230EE0FB1DD6
S315200003E01B780222134001D0022307E0FB1D1B7855
S315200003F00122134001D0012300E000231800BD464E
S3152000040002B080BD000C024080B582B000AF78609B
S3152000041002E07B68013B7B607B68002BF9DCC046F1
S31520000420BD4602B080BD80B582B000AF786002E0E4
S315200004307B68013B7B607B68002BF9DCC046BD46B0
S3152000044002B080BD80B582B000AF104B00221A608A
S315200004500F4B29221A600F4B00221A600B4B0522E4
S315200004601A600A4B1A6880235B0213407B60C046E1
S31520000470064B1A6880235B021340F9D0034B0022F7
S315200004801A60C046BD4602B080BDC04610E000E0FE
S3152000049014E000E018E000E080B500AFC046BD469D
S315200004A080BDC04680B582B000AF402000F032F952
S315200004B0144B154A1A60012000F02CF9022000F096
S315200004C007F9FFF7E9FF402000F002F9FFF7E4FF04
S315200004D00C4B5B7CDAB2FB1D7F218A431A704020CD
S315200004E000F018F9FFF7D8FFFB1D1B78002B00D072
S315200004F0E9E7C046034B054A1A60C046BD4602B02E
S3152000050080BDC04600100240555500005555555532
S3152000051080B584B000AF0200FB1D1A70402000F0A9
S31520000520F9F81C4B1C4A1A60032000F0D1F8FB1D79
S315200005301B78180000F012F9FFF7AEFF402000F0FC
S31520000540C7F8FFF7A9FF134A0F23FB18527C1A702E
S31520000550402000F0DFF80F4B104A1A60FB1D1B7875
S315200005600822134004D0082000F0F8F8FFF79AFF7D
S31520000570FB1D1B781022134004D0102000F0EEF84B
S31520000580FFF790FF0F23FB181B781800BD4604B019
S3152000059080BDC046001002405555000055555555A2
S315200005A080B582B000AF0200FB1D1A70BB1D0A1C6D
S315200005B01A701A4AFB1D1B785375BB1D1B78180031
S315200005C000F0CCF8FFF768FF402000F081F8FFF735
S315200005D063FF402000F09EF8BB1D1B7808221340C5
S315200005E004D0082000F0BAF8FFF75CFFBB1D1B788B
S315200005F01022134004D0102000F0B0F8FFF752FF6D
S31520000600064B00225A75402000F062F8002000F0C8
S31520000610A5F8C046BD4602B080BDC04600100240C7
S3152000062080B582B000AF0200FB1D1A70BB1D0A1CEC
S315200006301A70402000F06EF8BB1D1B78180000F0E1
S315200006408DF8032000F066F8BB1D1A78FB1D1B7879
S3152000065011001800FFF7A4FFC046BD4602B080BDBA
S3152000066080B582B000AF0200FB1D1A70BB1D0A1CAC
S315200006701A70402000F04EF8BB1D1B78180000F0C1
S315200006806DF8022000F046F8012000F021F8BB1D8D
S315200006901A78FB1D1B7811001800FFF781FFC04652
S315200006A0BD4602B080BD80B582B000AF0200FB1D02
S315200006B01A70FB1D1B781800FFF72AFFFB1D1B78FD
S315200006C01800FFF725FF03001800BD4602B080BDC5
S315200006D080B584B000AF0200FB1D1A700C4A0F21B2
S315200006E07B18127D1A70FB1D1B785BB20422934384
S315200006F05AB27B181B785BB213435AB27B181A7016
S31520000700034A7B181B781375C046BD4604B080BDCE
S315200007100010024080B584B000AF0200FB1D1A70A5
S315200007200D4A0F217B18127D1A70FB1D1B78DB43A7
S31520000730DBB27A1812781340DAB208007B1804214B
S315200007408A431A70044A01007B181B781375C04629
S31520000750BD4604B080BDC0460010024080B582B0C0
S3152000076000AF0200FB1D1A70FB1D1B78082B0CD056
S3152000077002DC002B05D01AE0102B0DD0182B12D03E
S3152000078015E01820FFF7C6FF11E00820FFF7A0FFAD
S315200007901020FFF7BFFF0AE01020FFF799FF08207F
S315200007A0FFF7B8FF03E01820FFF792FFC046C046C8
S315200007B0BD4602B080BD80B500AF4020FFF788FF60
S315200007C00A20FFF730FE7820FFF7A4FF1E20FFF750
S315200007D01BFE2020FFF77CFF6420FFF715FE182163
S315200007E03E20FFF71DFF18213F20FFF719FF182194
S315200007F0C020FFF715FF18214020FFF711FF182111
S31520000800B820FFF70DFF0020FFF7A8FFC046BD4622
S3152000081080BD80B582B000AF00237B601DE07B6881
S31520000820DBB2482252421343DBB218211800FFF7ED
S31520000830F7FE18214020FFF7F3FE00233B6006E079
S3152000084018210020FFF70CFF3B6801333B603B6813
S315200008503F2BF5D97B6801337B607B68072BDED97C
S31520000860C046BD4602B080BDB0B588B000AFF860C6
S31520000870B9607A60FB68002B00DCB6E0BB68002B11
S3152000088000DCB2E0FB68802B00DDAEE0BB68402BCD
S3152000089000DDAAE0BB68013B002B00DA0733DB1042
S315200008A0BB61BB68013B534A134004D5013B082278
S315200008B0524213430133072B2CD89A004E4BD318A0
S315200008C01B689F461F23FB1801221A7022E01F2354
S315200008D0FB1802221A701DE01F23FB1804221A702F
S315200008E018E01F23FB1808221A7013E01F23FB1899
S315200008F010221A700EE01F23FB1820221A7009E01E
S315200009001F23FB1840221A7004E01F23FB188022A5
S315200009101A70C0467B68002B05D11F22BB18BA1857
S315200009201278D2431A70FB68402B07DD1E23FB1872
S3152000093010221A70FB68413BFB6006E01E23FB1861
S3152000094008221A70FB68013BFB60FB685BB2402201
S3152000095013435BB2DAB21E257B191B7819001000EF
S31520000960FFF75EFEBB695BB24822524213435BB27D
S31520000970DAB27B191B7819001000FFF751FE1723F6
S31520000980FC187B191B781800FFF78DFE03002370D7
S31520000990FB685BB2402213435BB2DAB27B191B7849
S315200009A019001000FFF73CFE7B68002B09D01F22A0
S315200009B0BB18B9181722BA18097812780A431A7080
S315200009C008E01F22BB18BA1817217918127809785F
S315200009D00A401A701E23FB181A781F23FB181B784F
S315200009E011001800FFF73CFE00E0C046BD4608B0E7
S315200009F0B0BDC046070000806C0E0020B0B584B0A4
S31520000A0000AF78607B681B681A680E23FB181A7083
S31520000A100F23FB1800221A702DE07B68DB68D9B201
S31520000A207B681A680F243B191B7804335B00D318A4
S31520000A3004331A780D203B188A181A707B681B69B4
S31520000A40D9B27B681A683B191B7804335B00D3182C
S31520000A5005331A780C257B198A181A703B181878D2
S31520000A607B191B7801221900FFF7FEFE3B191A7825
S31520000A703B1901321A700F23FA180E23FB1812782D
S31520000A801B789A42C9D3C046BD4604B0B0BDB0B5A6
S31520000A9084B000AF78607B681B681A680E23FB1849
S31520000AA01A700F23FB1800221A702DE07B68DB6872
S31520000AB0D9B27B681A680F243B191B7804335B0074
S31520000AC0D31804331A780D203B188A181A707B68BD
S31520000AD01B69D9B27B681A683B191B7804335B0003
S31520000AE0D31805331A780C257B198A181A703B18E7
S31520000AF018787B191B7800221900FFF7B5FE3B19E1
S31520000B001A783B1901321A700F23FA180E23FB1894
S31520000B1012781B789A42C9D3C046BD4604B0B0BDF0
S31520000B2080B584B000AFF860B9607A60FB68BA68B7
S31520000B305A60FB687A689A60C046BD4604B080BD9C
S31520000B4080B582B000AF78607B681800FFF79FFF02
S31520000B507B68DA687B685B68D2187B68DA607B68BA
S31520000B601A697B689B68D2187B681A617B68DB6888
S31520000B70012B06DC7B681B685B688022D21A7B68A7
S31520000B80DA607B68DA687B681B685B688021CB1A31
S31520000B909A4202DD7B680122DA607B681B69012BA1
S31520000BA006DC7B681B689B684022D21A7B681A6128
S31520000BB07B681A697B681B689B684021CB1A9A421E
S31520000BC002DD7B6801221A617B681800FFF716FF99
S31520000BD0C046BD4602B080BD80B500AF084B094A6D
S31520000BE01A60074B802252009A80054BAA221204D3
S31520000BF0DA60054B054A1A60C046BD4680BDC04630
S31520000C00000C0240555500550010024055555555CB
S31520000C1090B587B000AF786039607B68DB681A1DB5
S31520000C203B68DB68D017D90F9A4248410300D9B2F6
S31520000C307B68DB683A68D2680432DC0FD0179A42A8
S31520000C4044412300DBB20B40DBB2002B53D07B6840
S31520000C501B691A1D3B681B69D017D90F9A42484158
S31520000C600300D9B27B681B693A6812690432DC0F2B
S31520000C70D0179A4244412300DBB20B40DBB2002B53
S31520000C8039D03B681800FFF702FF1D4B1B685A1C22
S31520000C901B4B1A600C217B181A4A11CA11C31A4B16
S31520000CA07A181A6001210120FFF7BEFA08E0164BD8
S31520000CB01B68591C144A11601B781800FFF796FA16
S31520000CC0114B1B681B78002BF1D10D4B1B68DAB238
S31520000CD017217B1830321A707B181B781800FFF703
S31520000CE085FA3B68DB685A1D3B68DA603B681B69FE
S31520000CF05A1D3B681A61C046BD4607B090BDC04626
S31520000D00BC0D00208C0E0020C00D002080B584B0C4
S31520000D1000AF284BFB60284BBB60FFF75DFFFFF75A
S31520000D204AFDFFF79CFA01210120FFF77DFAFB68B7
S31520000D30DB69FA6810009847BB681800FFF75EFE6B
S31520000D40BA68FB6811001800FFF762FF2820FFF73A
S31520000D505BFBFFF7D1FA0200FB1D1A70FB1D1B7807
S31520000D60042B0FD002DC022B14D022E0062B02D05B
S31520000D70082B17D01DE0FB681B6AF86800220221A9
S31520000D80984716E0FB681B6A02225142F868002247
S31520000D9098470EE0FB681B6A02225242F86800213F
S31520000DA0984706E0FB681B6AF868022200219847EC
S31520000DB0C046BCE7F80D00201C0E002000000000F5
S31520000DC0000000000C0000000400000004000000E9
S31520000DD000010002010001010102010302000201DB
S31520000DE002020203030103020000000000000000CB
S31520000DF00000000000000000C40D002000000000DC
S31520000E00000000000200000002000000FD09002092
S31520000E108F0A0020410B0020210B0020C40D00204A
S31520000E20000000000000000007000000070000008E
S31520000E30FD0900208F0A0020410B0020210B0020F5
S31520000E40506F696E747300000102030A0405060BD5
S31520000E500708090C0E000F0D9A0300207A030020C4
S31520000E60820300208A03002092030020C408002069
S31520000E70CE080020D8080020E2080020EC08002038
S31520000E80F6080020000900200A090020506F696E2C
S30920000E9074733A0017
S70520000000DA
