S01400002E2F44656275672F64656C61792E7331395E
S315200000000248854600F064F8FEE7C04600C001209D
S3152000001080B500AF024B034A1A60C046BD4680BD7C
S31520000020001002405555555580B582B000AF786016
S3152000003007E0FA239B00180000F00AF87B68013BD2
S315200000407B607B68002BF4DCC046BD4602B080BDD9
S3152000005080B582B000AF78600AE000F010F800F0BA
S315200000600EF800F00CF800F00AF87B68013B7B6084
S315200000707B68002BF1DCC046BD4602B080BD80B552
S3152000008082B000AF0F4B00221A600F4B29221A6054
S315200000900E4B00221A600B4B05221A60094B1A6878
S315200000A080235B0213407B60C046064B1A68802380
S315200000B05B021340F9D0034B00221A60C046BD46AE
S315200000C002B080BD10E000E014E000E018E000E09F
S315200000D080B500AFFFF79CFF064B00221A70012067
S315200000E0FFF7A2FF034BFF221A700120FFF79CFFA8
S30D200000F0F2E7C046141002409D
S70520000000DA
