S01B00002E2F44656275672F666C6970666C6F705F6972712E7331395F
S315200000000248854600F06AF8FEE7C04600C0012097
S3152000001080B500AF094B1B68082213400AD0084B55
S315200000201B685A1C064B1A60044B1A68034B08219E
S315200000300A431A60C046BD4680BDC046143C0140F6
S31520000040F800002080B500AF184B194A1A60194BEA
S315200000501A68184B18490A401A60164B1A68154B2D
S315200000608021C9010A431A60144B1A68134B0821D0
S315200000700A431A60124B1A68114B08210A431A6068
S31520000080104B1A680F4B08218A431A600E4B0F4AF1
S315200000901A600F4B0F4A1A600F4B1A680E4B8021BD
S315200000A089000A431A60C046BD4680BD000C024046
S315200000B05555555508380140FF0FFFFF003C0140BC
S315200000C0083C01400C3C014008ED00E000C0012046
S315200000D064C001201100002000E100E080B500AFDF
S315200000E0FFF7B0FF024B1A68024BD2B21A70F9E73B
S311200000F0F8000020140C02400000000064
S70520000000DA
